:100000000C942A000C9436000C9451000C946C0053
:100010000C9434000C9434000C9434000C94340090
:100020000C9434000C9434000C9434000C94340080
:100030000C9434000C9434000C9434000C94340070
:100040000C9434000C9434000C9434000C94340060
:100050000C94340011241FBECFE5D8E0DEBFCDBF25
:100060000E949B000C94A0000C9400001F920F9221
:100070000FB60F9211242F938F939F93959A2FEF82
:1000800089E698E1215080409040E1F700C00000EF
:1000900095989F918F912F910F900FBE0F901F9069
:1000A00018951F920F920FB60F9211242F938F93D2
:1000B0009F93969A2FEF89E698E1215080409040D7
:1000C000E1F700C0000096989F918F912F910F90BB
:1000D0000FBE0F901F9018951F920F920FB60F92A0
:1000E00011242F938F939F93979A2FEF89E698E18E
:1000F000215080409040E1F700C0000097989F9108
:100100008F912F910F900FBE0F901F90189581B374
:10011000806E81BB089585B7816085BF85B78C608F
:1001200085BF84B78F7B84BF8FB780688FBF8BB745
:10013000806E8BBF08950E9487000E948B00FFCFC6
:04014000F894FFCF61
:00000001FF
